:0400000080311E2805
:100008007E1480310B1F1C282E0099188F1C132872
:10001800210044088A0043080A0080311C28191866
:100028000F1C1C28210042088A0041080A00803160
:100038007E100900803120280130EF008B308400C9
:10004800883085004D3086000130870020308731A8
:10005800F8278031673084000030850008309731F8
:10006800B1278031A0308400003085003B309731C3
:10007800B127803120308400013085002D30973140
:10008800B12780317E1020004928E02580316E2379
:10009800803169238031971403306806031D862850
:1000A8000630CA2580312008013EA400FC30213DDD
:1000B800A500FF30A600A7002925803125082100CA
:1000C800BE00200024082100BD003E082000A10039
:1000D80021003D082000A000F123803121003E08C6
:1000E8002000A10021003D082000A000BA25803191
:1000F80021003E082000A10021003D082000A000AA
:100108000124803120006E080319A328E230EE0193
:10011800B8000730B9000430BA001430BB001330FF
:10012800BC002030BD00BE01F52580311A3020000A
:10013800E600F830890B9E28E60B9E280000200078
:100148008C1CB028B7280D302000E600FB30890B46
:10015800AB28E60BAB28003220008C1CA728EF0147
:10016800EF0AE801E80A0C1DC328CA280D30200050
:10017800E600FB30890BBE28E60BBE2800322000C3
:100188000C1DBA280230EF01EF0AE8008C1DD628B2
:10019800DD280D302000E600FB30890BD128E60B66
:1001A800D128003220008C1DCD280330EF01EF0A42
:1001B800E8000C1EE928EF280D302000E600FB308F
:1001C800890BE428E60BE428003220000C1EE02806
:1001D800EF01EF0AE8012E00101C5D291010033012
:1001E80020006806031D02290E30A30001305223A7
:1001F80001308931B3218031F7218031023068061E
:10020800031D5D298A312922803165082100DA0021
:10021800200064082100D900200063082100D800CC
:10022800200062082100D700D7308D319125803118
:100238002000E70086008701443FED00670886003C
:10024800423FEC0067088600463FEB0067088600DF
:10025800483FE90067080A3E8600403F2100BF008A
:10026800413FC0003F089C3E2000EA000230A30145
:10027800A30A522380316B08F72180312F30BB232A
:1002880080316908F72180317230A4009830A500C8
:10029800422380316A08F72180312030BB23803126
:1002A8006D08F72180313A30BB2380316C08F72183
:1002B800803120006F0803195028EF01E7296923CE
:1002C80080310230A3000130522380313330A40042
:1002D8009830A500422380310230A301A30A52239B
:1002E80080311130A4009830A50042238031FF30BE
:1002F800A0000330A100F1238031FF302000A000CE
:100308000330A100BA258031FF302000A00003305F
:10031800A1000124803120000D105028692380316C
:100328000230A3000130522380314E30A4009830AF
:10033800A500422380310230A301A30A5223803151
:100348000030A4009830A50042238031FE30A00080
:100358000130A100F1238031FF302000A0000330DC
:10036800CC29692380310130A301A30A52238031AB
:100378002230A4009830A50042238031FF30A0002D
:100388000330A100F123803190302000A00001301B
:10039800A100BA258031FF302000A0000330A10061
:1003A800012480312000E529692380310130A3012F
:1003B800A30A522380314130A4009830A50042237B
:1003C80080310D1450286808003A03196329013A4E
:1003D80003199229033A0319B529013A0319D829AF
:1003E800502880311E28A90084003E3004020318DA
:1003F800382B88310435003E820008007630A4008E
:100408009830A500422B8530A4009830A500422BD7
:100418009A30A4009830A500422BAC30A400983044
:10042800A500422BBB30A4009830A500422BCD304C
:10043800A4009830A500422BDF30A4009830A50016
:10044800422BF130A4009830A500422B0330A400C1
:100458009930A500422B1530A4009930A500422BF5
:100468000E30A4009830A500422B8830A4009830A4
:10047800A500422B9D30A4009830A500422BAF3038
:10048800A4009830A500422BBE30A4009830A500E7
:10049800422BD030A4009830A500422BE230A400B3
:1004A8009830A500422BF430A4009830A500422BC8
:1004B8000630A4009930A500422B1830A4009930CA
:1004C800A500422B7330A4009830A500422B8B3036
:1004D800A4009830A500422BA030A4009830A500B5
:1004E800422BB230A4009830A500422BC130A400A2
:1004F8009830A500422BD330A4009830A500422B99
:10050800E530A4009830A500422BF730A4009830BD
:10051800A500422B0930A4009930A500422B1B30BE
:10052800A4009930A500422B7930A4009830A5008A
:10053800422B8E30A4009830A500422BA330A40093
:100548009830A500422B6F30A4009830A500422BAC
:10055800C430A4009830A500422BD630A4009830AF
:10056800A500422BE830A4009830A500422BFA30B1
:10057800A4009830A500422B0C30A4009930A500A7
:10058800422B1E30A4009930A500422B7C30A400D9
:100598009830A500422B9130A4009830A500422B3A
:1005A800A630A4009830A500422BB530A40098309E
:1005B800A500422BC730A4009830A500422BD930A3
:1005C800A4009830A500422BEB30A4009830A50079
:1005D800422BFD30A4009830A500422B0F30A40018
:1005E8009930A500422B2130A4009930A500422B58
:1005F8007F30A4009830A500422B9430A400983096
:10060800A500422BA930A4009830A500422BB83091
:10061800A4009830A500422BCA30A4009830A50049
:10062800422BDC30A4009830A500422BEE30A40009
:100638009830A500422B0030A4009930A500422B29
:100648001230A4009930A500422B2430A400993020
:10065800A500422B8230A4009830A500422B973089
:10066800A4009830A500422B0130A301A30A52230D
:1006780080316730A4009830A500422BA701A8015B
:10068800B6278031120003190800B6278031000808
:10069800BB238031A70A0319A80A442BA400240B02
:1006A8005D2B23087F3E9C278031A82380312608B4
:1006B800A82B02302406031D08002308BF3E9C27F0
:1006C8008031A82380312608A82B0030A823803148
:1006D8000130A82B0030DA2380311A302000A30023
:1006E800F830890B752BA30B752B00000330A8235A
:1006F800803107302000A3007D30890B812BA30BAC
:10070800812B0330A82380310F302000A30047300D
:10071800890B8C2BA30B8C2B00320330A823803140
:100728000230A82380310230A82380310830A82362
:1007380080310030A82380310C30A823803100306C
:10074800A82380310630A82B2000A2009812220886
:10075800DA238031181606302000A1003030890BCA
:10076800B32BA10BB32B0000200018120800A30024
:10077800A1000F30A1052308A200F030A2059816A9
:10078800220E0F39DA23803118160D30890BCA2B47
:100798000000200018122108DA23803118160D30C5
:1007A800890BD42B00002000181208002000A0009C
:1007B800201CE02B1814E12B1810A01CE52B981412
:1007C800E62B9810201DEA2B1815EB2B1811A01DED
:1007D800EF2B9815080098110800FF30A00503308A
:1007E800A10526000E1EFF2B06302000A035A10D06
:1007F800890BFA2BAE2F2000AE2F2108A30020086A
:10080800A200A336A20CA336A20C220827008D0052
:10081800200020080339A200A20CA20C220CC03927
:1008280027008C0008002000E1000A3E860081278E
:100838008031031D212C46305702031C2F2C200029
:1008480061080A3E860081278031031D2D2C8B30DC
:100858005702031C362CFF302000DD00DE00DF00CD
:10086800E000912C20006108083E86008701403F87
:10087800C500413FC600C50A0319C60A61080A3EF9
:100888008600403FC300413FC4006C30C3070730B7
:10089800C43D6108063E8600403FC700413FC8008E
:1008A800BF2480314608E0004508DF004408DE0028
:1008B8004308DD00B230C3000730C400C501C50AD3
:1008C800C601C701C70AC801BF2480314308DD0239
:1008D8004408DE3B4508DF3B4608E03B6108043E30
:1008E800692780311830A400A501A601A7019A2420
:1008F80080318B2780316108023E69278031BD270E
:1009080080319A2480318B278031610869278031B2
:10091800BD2780319A2480318B276008D6005F0874
:10092800D5005E08D4005D08D3000800A801A9011D
:10093800AA01AB01201CA82C2408A8072508A93D5A
:100948002608AA3D2708AB3DA435A50DA60DA70D81
:10095800A336A20CA10CA00C230822042104200415
:10096800031D9E2C2B08A3002A08A2002908A10019
:100978002808A00008004608B2004508B100102564
:10098800803147083107CF004808323DD000003099
:10099800D101D2014602033003194502031CF62C8B
:1009A8004408A6004308A5008D319F2580312508FD
:1009B8002604031DE22C0230CD00E42CCD01CD0A23
:1009C800CE014D08C9004E08CA000030CA1BFF30CE
:1009D800CB00CC004908CF024A08D03B4B08D13B9A
:1009E8004C08D23B0130C3020030C43B4408B2007B
:1009F8004308B1003E253108CF073208D03D3308FF
:100A0800D13D3408D23D5208C6005108C5005008EF
:100A1800C4004F08C30008006430AA00AB013208C4
:100A2800A5003108A400F130A6000B30A700292545
:100A380080312408413EAC00F430253DAD009525B9
:100A48002B08B2002A08B1000800A801A901241C3B
:100A5800312D2608A8072708A93DA635A70DA536D4
:100A6800A40C24082504031D2B2D2908A5002808FB
:100A7800A40008006430AA00AB01C3278031952583
:100A880080312A08B5002B08B6009030B701B801AC
:100A9800AA000130AB00C3278031952580312A0890
:100AA800B9002B08BA00BB01BC013208BE003108EE
:100AB800BD00BE36BD0CBE36BD0C3D08BF003E08AD
:100AC800C000C101C2013108A0003208A1000130F4
:100AD800A201A301A701A601A5006D30A4009A24D4
:100AE8002008BF072108C03D2208C13D2308C23D98
:100AF8003F08B9074008BA3D4108BB3D4208BC3D24
:100B08003508B9023608BA3B3708BB3B3808BC3B46
:100B18003C08B4003B08B3003A08B2003908B100F9
:100B28000800AE01AF012A082B040319B52DB00146
:100B3800B00AAB1BA22DAA35AB0D9C2DAE35AF0D5F
:100B48002B082D02031DAA2D2A082C02031CB12DE7
:100B58002A08AC022B08AD3B2E14AB36AA0CB00BFE
:100B6800A22D2F08AB002E08AA000800FF30A00510
:100B78000330A1052600121EC82D06302000A0351E
:100B8800A10D890BC32DA62F2000A62FA300230893
:100B980021009E009317131313140000210013184B
:100BA800D22D0D082000A100A00121000C08200072
:100BB800A0070318A10A0800E5268031AD26803178
:100BC800A32680310A278031FF268031ED26803127
:100BD80028278031F62680318D26803111278031F3
:100BE800422E6430B301A000A1013908A3003808DF
:100BF800A2008F31662780312008B40006302926EC
:100C08008031D0302000B3003A08B40005302926DE
:100C180080312000B3013B08B4000430292680311C
:100C28002000B3013D08B40001302926803180300E
:100C38002000B3003E08B40000302926803120008F
:100C4800B3013C08B4000230292EB7008726803152
:100C5800B6003308B6050A30A0003408C82780312A
:100C6800B500350EF039B5000A30A0003408E02789
:100C7800803135043604AF003708772E2000033062
:100C8800B3018726803107392200AC00AD0108384E
:100C98002000AF000330772680310030872680316E
:100CA8002200A0004030A1012000AF0007307726C5
:100CB80080312200200880382000AF0000307726DD
:100CC800803120003308031D702E033087268031C1
:100CD800B3002030B305652E22002C080838200008
:100CE800AF000330772EB100AC002F08AD006F3095
:100CF8003627803107302000B0007D30890B822EE6
:100D0800B00B822E08002000B200AC006F308C318E
:100D18006E2C22008E018F019001910192019301A6
:100D28008D0121009E019B01940195019601970177
:100D38009A019901013098008430930008006030CE
:100D480031008D008F019101023093002030920014
:100D5800080020009601970140309800FE3091006D
:100D6800F0309200403093003E00CE01C030C30006
:100D78004030B800E501C401B901CF01BA01C5018D
:100D8800D0013D004608E0390C38C6004508E03976
:100D98000D38C50009303E009A0014309D000A3015
:100DA8009B0015309C000E3090001630A7003D00C7
:100DB8004908E0391638C9004808E0391738C8002A
:100DC80008002F0096019701980199019A019B014B
:100DD80008008F3026008E008D018C01033024001E
:100DE8009E0408008F3026009200910190010C307B
:100DF80024009E040800803027008E007F308D007C
:100E0800C0308C000C3024009F0408008030230080
:100E1800990020309A009701080024008F01900162
:100E2800013091000B308D00DC308C000D08210062
:100E3800EE00ED0124000C082100ED042E00101036
:100E4800313024008E000800013025009C009B01F1
:100E58009D01FF30990098012E009012A0302500C6
:100E68009A000800AE002E088C31CA248031003A5E
:100E78000319372F2130A4000C30A5002D30A6000F
:100E88005D272C30A001A00AA1018C31B824803143
:100E9800A2302000A4001730A500A6018D3122251C
:100EA800803166278C31A6248031013A031D080061
:100EB800562F2508A1002408A0002608A20000300B
:100EC8008D312A2D00308931292986008701403F3C
:100ED800D700413FD8005708D9005808DA00003039
:100EE800DA1BFF30DB00DC006008A3005F08A2000B
:100EF8005E08A1005D08A00008008701403FD700F8
:100F0800413FD800803AD9008030590208002008B3
:100F1800D9072108DA3D2208DB3D2308DC3D5C08BF
:100F2800E0005B08DF005A08DE005908DD00080011
:100F3800A700270E0F39A5002708A6000F30A60521
:100F48002508080021082600910020002008260016
:100F580090000800210826008D00200020082600A7
:100F68008C0008002408270784002508283D8500F0
:100F780008003C30A400A501A601A701080032081A
:100F8800AD003108AC000800A100A3012008031936
:100F9800DE2FA201A20AA01BD32FA035CE2FA33586
:100FA80020082102031CDB2F2008A1022314A036ED
:100FB800A20BD32F23080800A2000830A300A40125
:100FC8002208A1000730A136890BE72F2435210418
:100FD800A400A23520082402031CF42F2008A40230
:100FE800A30BE42F24080800FE0012001E00FE0BCD
:040FF800F92F003499
:101000008231022A8231072A82310C2A8231112A46
:101010008231162A82311B2A8231202A8231252AE6
:1010200082312A2A82312F2A8231342A8231392A86
:1010300082313E2A8231432A8231482A82314D2A26
:101040008231522A8231572A82315C2A8231612AC6
:101050008231662A82316B2A8231702A8231752A66
:1010600082317A2A82317F2A8231842A8231892A06
:1010700082318E2A8231932A8231982A82319D2AA6
:101080008231A22A8231A72A8231AC2A8231B12A46
:101090008231B62A8231BB2A8231C02A8231C52AE6
:1010A0008231CA2A8231CF2A8231D42A8231D92A86
:1010B0008231DE2A8231E32A8231E82A8231ED2A26
:1010C0008231F22A8231F72A8231FC2A8331012BC4
:1010D0008331062B83310B2B8331102B8331152B5E
:1010E00083311A2B83311F2B8331242B8331292BFE
:1010F00083312E2B8331332B2E008F1008007E1C62
:1011000082288628A0112300911504342100A01103
:10111000230091150434B7341734EB341734D83422
:10112000173432340B34B03408347F340834E734A5
:101130000A34D3340B342D340B34E6340B34DB3423
:101140000B34C134173420340934AB340834CC3474
:101150001734AF340A347E1CAE281C2925210934EB
:101160007E1CB328E42822088600870123000C088F
:10117000810021000130A20AA3020030A43B230811
:1011800024040319C72823009112111605342015D1
:1011900037082000A7000B30A03E86008701413FA2
:1011A0008A00403F0A008831013A0319E328033AD4
:1011B0000319E228013A0319E228073A0319E32840
:1011C000E3280800AB282029210022088600870197
:1011D00023000C08810021000130A20AA302003084
:1011E000A43B230824040319F928230091121116A3
:1011F00005342015FF281C21080018210800370895
:10120000F7000B30A03E86008701413F8A00403F37
:101210000A008931013A0319FD28033A0319FB2812
:10122000013A0319FB28073A0319FD28FD28080095
:101230002300911611160A34230091161116093451
:101240007E1C2329182925210A3423009116111602
:101250000800AA00AB01AB0A2100201C32292000A3
:101260002B08080020142000AB012A0803193C2990
:101270002100A901A90A3F2902302100A900230069
:1012800011142E00190801392000A000200C0318A9
:101290002F295D2900302E000F185B2950295B296A
:1012A0002E000F1C56295B2956295B292130890BFA
:1012B00057290000502963218931210020184A292B
:1012C0002F294A292F297E1C6629902980218931BE
:1012D0002100A01D722983218931031C72290F303E
:1012E0002100A900210029354D3E860001308700EC
:1012F000413F8A00403F0A0089312100A9000800CF
:101300002E000F10080023001108BF39403891004B
:10131000110E890C890C01392000A000200C080056
:101320002E000F102100A01DA52923001108BF3990
:1013300040389100110E890C890C0139F000700CB5
:10134000031CA5290F302100A900210029354D3E9D
:10135000860001308700413F8A00403F0A00893102
:101360002100A9000800AD01AE01AB01AF01AC0145
:10137000B0019710C8300032890BBB292000B101A1
:101380003108031DC82901301E2289312000AD001B
:10139000310BCF2901301E2289312000AE000230EE
:1013A0003106031DD82901301E2289312000AB00EF
:1013B00003303106031DE12901301E22893120004E
:1013C000AF0004303106031D152A9714AD1DF12915
:1013D0002E08B000FF30B0060F30B00EB0052E0959
:1013E000F7292E08B0000F30B00EB0052E08B0005F
:1013F000F030B00EB0050330B00EB00CB00CB0053C
:101400001930A0003008A3222B08AC002F08B00030
:101410000F30B00EB0053008A4007130A501A60051
:101420000230A7008531292589310530B10A310202
:10143000031CC0292C08E23EAA000800A0002300DB
:101440009A132000200823009600191C252A16084C
:1014500008001230A001A101A200DB30A3019122FB
:101460008931FF30B300063079228931643E210092
:10147000E500003003180130E6001F302000B30003
:10148000053079228931FF3E2100E300FF30031847
:101490000030E4003F302000B3000430792289316D
:1014A0002100E1003F30E2012000B3000230792248
:1014B00089312100DF007F30E0012000B3000130DE
:1014C000792289312100DD007F30DE012000B30068
:1014D000003079222100DB00DB30DC01843117246D
:1014E0005608E5005508E4005408E3005308E200FC
:1014F0000800B600863187268931B7003308B70562
:101500000F303705B4000A30A00033083705B500A6
:101510000430B536890B892A35080F39A3223407E0
:101520000800A500A4000130A2020030A33B220F56
:101530009C2A230A03190800240886008701200832
:101540008100A40A932AA200A10120082218A10761
:10155000A035A2362208031DA52A210808007E1CFA
:10156000B22ACB2A0230A011AA0039082000A70015
:101570000F30A03E86008701413F8A00403F0A00AD
:101580008A31023A0319C92A013A0319C92ACA2A17
:101590000800E62BDB2B21000230A011AA00D42A80
:1015A000E3230800D02308003908F7000F30A03EDD
:1015B00086008701413F8A00403F0A008A31023A93
:1015C0000319D02A013A0319D02AD22A08007E1C16
:1015D000EA2A0A2B201537082000A7000B30A03E6E
:1015E00086008701413F8A00403F0A008A31013A64
:1015F0000319092B033A0319052B013A0319052B8B
:10160000073A0319062B092B0800E62B2E000F14AE
:101610000334DB2B21002015142BE32308002E00BC
:101620000F140334D02308003708F7000B30A03E16
:1016300086008701413F8A00403F0A008B31013A12
:101640000319122B033A03190D2B013A03190D2B21
:10165000073A03190F2B122B08007E1C302BCD2BC1
:10166000D82302347E1C352B802B23001108BF3970
:1016700040389100110E890C890C01392000A0001E
:10168000200C0318472B612BD32B2D2BDB2B210098
:101690003A082000A7001130A03E86008701413F94
:1016A0008A00403F0A008B31013A0319462B033A66
:1016B0000319442B013A0319452B073A0319462B0A
:1016C000462B2100A230A01186008701403F8400F4
:1016D0008501810A00082000A000200823008C005A
:1016E00001302100A3020030A43B23082404031D81
:1016F0007B2B06307C2B03302000A800A9010800BA
:1017000023001108BF3940389100110E890C890C53
:101710000139F000700C0318942BAD2BCA2308007C
:10172000CD230800D023080021003A08F70011302B
:10173000A03E86008701413F8A00403F0A008B316E
:10174000013A0319922B033A03198E2B013A03191C
:10175000902B073A0319922B922B2100A230A01153
:1017600086008701403F84008501810A0008F0005F
:10177000700823008C0001302100A3020030A43B3C
:1017800023082404031DC62B0630C72B0330F800A2
:10179000F90108002300911401342300911402344C
:1017A0002300111500347E1CD62BCA2BD8230134FC
:1017B0002300911408007E1CDE2BD02BE023003484
:1017C0002300111508002300911401347E1CE92B1D
:1017D000E32BD82301347E1CEE2BFB2B02302000A0
:1017E000A000A1012708B8242000A401A501A6019A
:1017F00087315D2702340230F000F10177085C2563
:101800008B31F401F501F601682502347E1C092CA8
:10181000162C2000A001A00AA1012708B82420004E
:10182000A401A501A60187315D270234F001F00A69
:10183000F10177085C258B31F401F501F60168258B
:1018400002347E1C242C312C2000A001A00AA1010E
:101850002708B8242000A401A501A60187315D272F
:101860000434F001F00AF10177085C258B31F401B2
:10187000F501F601682504347E1C3F2C4C2C023007
:101880002000A000A1012708B8242000A401A50180
:10189000A60187315D2704340230F000F10177089A
:1018A0005C258B31F401F501F601682504347E1CBA
:1018B0005A2C4A2D2000270886008701403FA000AF
:1018C000413FA1002708023E86000108B8242000FD
:1018D000A401A501A60187315D270234AD002A309D
:1018E000B1000230AF00B0012D08CA248B31003A9C
:1018F0000319742C0630A4000C30A5003130A6006A
:1019000087315D278B312C30A001A00AA101B824BA
:101910008B31A2302000A4001730A500A60122259B
:10192000873166278B31A6248B31AE002E03031935
:10193000932C2E080319A42CFF30AF07031CB0030F
:101940002F083004031D742C31080800A001A00AE0
:1019500021002018B52CFF30A010A1002E000F1080
:10196000191021002A082000A000200020080800EB
:10197000A2002100201D0800200022082100A20052
:10198000200021082100A400200020082100A3003D
:1019900020110800A200A301A30A2100A018152D00
:1019A000200022082100A1000E302010A014A01158
:1019B000A900F430A7000130A800A7302015AB0023
:1019C0001730AC00A730B701AD001730AE00A7301C
:1019D000B801AF001730B000A730B901B10017301F
:1019E000B200AC30BA01B3001730B400BB01182507
:1019F0008B312E000F107C302000A0000830A10099
:101A000021082100C400200020082100C300633009
:101A10002000A0000930A10021082100C200200000
:101A200020082100C1002000A30120002308080095
:101A30002300901A08008F0128309000910109308E
:101A40008D0008002508A1002408A0002608A20097
:101A500002302A2DA3002008210403193D2D23352F
:101A6000AB3E860087012008C03F2108C13F230804
:101A7000B73E86002208810008002335AB3E860071
:101A8000A7308701C03F1730C13F2308B73E86000B
:101A900081010800770886008701403FF000413F40
:101AA000F1007708023E860001085C258B31F401C5
:101AB000F501F60168250234F2002100201D08001E
:101AC0007208A2007108A4007008A3002011080089
:101AD0007508F1007408F0007608F20000307125F6
:101AE0000800F300700871040319842D7335AB3EB0
:101AF000860087017008C03F7108C13F7308B73E78
:101B000086007208810008007335AB3E8600A7305E
:101B10008701C03F1730C13F7308B73E860081017F
:101B200008002000B80086008701403FB400413F14
:101B3000B500423FB600433FB7003430BF2D903070
:101B4000A701A70AA0000130A100F7278D31662761
:101B50008D31200821040319BB2D25080339031DED
:101B6000BA2D6430A000A101F7278D316627200827
:101B700021040319A7012708A500A6010800AF004A
:101B800086008701403FB000413FB100423FB200B4
:101B9000433FB3003C30CD278D31E7268D312108FE
:101BA0002100C600200020082100C5003C30BF27CE
:101BB0008D317B268D31E2278D313C30CD278D3123
:101BC000E7268D3121082100C800200020082100CF
:101BD000C7003C30BF278D317B268D31E2278D3108
:101BE0001830CD278D31E7268D3121082100CA001C
:101BF000200020082100C9001830BF278D317B2626
:101C00008D3121082100CC00200020082100CB00CC
:101C10004C082000A30021004B082000A200043043
:101C2000A2070318A30A0730A000A10186278D315F
:101C300021082100D200200020082100D1004630D8
:101C4000CF00D001DA278D3141278D31EB278D313F
:101C50002608803A2E02031D302E250821004B0253
:101C6000031C422E2100DA278D3141278D312508B2
:101C70002100CB02200026082100CC3BCF0A03190B
:101C8000D00A222E2100DA278D3141278D312508F7
:101C9000B0000230B00521004C08D4004B08D3003E
:101CA000CD01CE0121004E0885004D0884005B3037
:101CB00084079830853D000820003004B100EB27F0
:101CC0008D3180302E02031D682E310821004B0219
:101CD000031C762E200031082100CB02031CCC030C
:101CE000CD0A0319CE0A2000B036522E2100CB0AAD
:101CF0000319CC0AC534A901A31F8B2EA009A10981
:101D0000A209A309A00A0319A10A0319A20A031927
:101D1000A30AA901A90AA71F9A2EA409A509A60921
:101D2000A709A40A0319A50A0319A60A0319A70AF1
:101D30000130A906AA01AB01AC01AD0123082204C0
:101D4000210420040319D02EA801A80AA31BAD2E3C
:101D5000A035A10DA20DA30DA52EAA35AB0DAC0D7E
:101D6000AD0D23082702031DBF2E22082602031DE6
:101D7000BF2E21082502031DBF2E20082402031CAC
:101D8000CA2E2008A4022108A53B2208A63B23084E
:101D9000A73B2A14A336A20CA10CA00CA80BAD2EB5
:101DA00029080319DE2EAA09AB09AC09AD09AA0A54
:101DB0000319AB0A0319AC0A0319AD0A2D08A300D5
:101DC0002C08A2002B08A1002A08A0000800A901E5
:101DD000A71FF42EF1278D310319A50A0319A60AAE
:101DE0000319A70AA901A90AA31F012FA009A10984
:101DF000A209A309A00A0319A10A0319A20A031937
:101E0000A30A230822042104200403192E2FA80169
:101E1000A80AA31B102FA035A10DA20DA30D082FFA
:101E200023082702031D1E2F22082602031D1E2F32
:101E300021082502031D1E2F20082402031C282F21
:101E40002008A4022108A53B2208A63B2308A73BA3
:101E5000A336A20CA10CA00CA80B102F2908031963
:101E6000382FF1270319A50A0319A60A0319A70A8F
:101E70002708A3002608A2002508A1002408A00026
:101E8000080025080339031D622F6430A000A1015A
:101E90002608A3002508A20066278D31200821040A
:101EA000031D642F9030A0000130A10025082C3EB6
:101EB000A2000130263DA30066278D3120082104B1
:101EC0000319642F6D30FC2F6E30FC2F2008210485
:101ED0000319812FA401A40AA11B712FA035A10D04
:101EE0006B2F21082302031D772F20082202031CD9
:101EF0007D2F2008A2022108A33BA136A00CA40B31
:101F0000712F2308A1002208A0000800A501A31F2B
:101F1000902FA209A309A20A0319A30AA501A50AE1
:101F2000A11F972FA009A109A00A0319A10A20083F
:101F300021040319B22FA401A40AA11BA22FA035CA
:101F4000A10D9C2F21082302031DA82F2008220287
:101F5000031CAE2F2008A2022108A33BA136A00C2F
:101F6000A40BA22F25080319BA2FA209A309A20ABC
:101F70000319A30A2308A1002208A00008002000DA
:101F8000A000A101A201A3013308A7003208A60006
:101F90003108A5003008A4000800A000A101A2019A
:101FA000A3013308A7003208A6003108A5003008B5
:101FB000A400080050082000A60021004F082000BF
:101FC000A50008002308B3002208B2002108B100D0
:101FD0002008B000080021004C08803A2000AE0024
:101FE0000800A409A509A609A709A40A080026084B
:101FF000A3002508A2000800A5000130A6000800E3
:102000004A3461346E344634653462344D3461345C
:1020100072344134703472344D34613479344A341A
:1020200075346E344A3475346C34413475346734E5
:102030005334653470344F34633474344E346F34F5
:1020400076344434653463340034533475346E3438
:102050004D346F346E3454347534653457346534CC
:1020600064345434683475344634723469345334C7
:06207000613474340034F9
:102F44007E1C0334A62F033403347E1C0134AB2FC0
:102F5400013401347E1C0534B02F0534053464007B
:102F640080010131890BB22F00347E1CBA2FBB2F94
:102F7400BD2F2100BD2F0E302010AA0108007E1C99
:102F8400C42FC82F23009112111605342300911267
:102F9400111605347E1CCF2FD32F0E302010AA011A
:102FA400080021000E302010AA0108007E1CDB2F2F
:102FB400E32FA01521352000A000200823008C0059
:102FC40003342100A0152135F000700823008C0083
:102FD40003347E1CEE2FF72FA0150314210D2000BF
:102FE400A000200823008C0005342100A015031440
:102FF400210DF000700823008C000534443465343E
:10300400663443346F346E342034473472346F344E
:103014007534703420343034313430340034323444
:10302400303431343834203420344434433431346B
:103034003734303420342034553464344734003445
:1030440043346134743461346C346F346E346934B1
:103054006134273473342034543469346D34653422
:1030640000344F34563445345234443452344934A1
:1030740056344534203443346F346E34003454347D
:1030840065346D3470346534723461347434753439
:10309400723465343A340034443465346634433429
:1030A4006F346E3420344334683469346E3461349C
:1030B40000341F341C341F341E341F341E341F3498
:1030C4001F341E341F341E341F34453452345234DA
:1030D4004F3452342034453445343334333400349B
:1030E4002F34323430340034303430340034333418
:1030F4003034003434343034003435343034003433
:1031040036343034003430343134003431343134F2
:103114000034323431340034333431340034343410
:1031240031340034353431340034363431340034FD
:1031340030343234003431343234003432343234C2
:1031440000343334323400343434323400343534DB
:1031540032340034303433340034313433340034D2
:103164003234333400343434333400343534333487
:1031740000343034343400343134343400343234B0
:103184003434003433343434003434343434003498
:103194003534343400343034353400343134353457
:1031A4000034323435340034333435340034343478
:1031B4003534003435343534003430343634003466
:1031C4003134363400343234363400343334363423
:1031D4000034343436340034353436340034303446
:1031E4003734003431343734003432343734003433
:1031F40033343734003434343734003435343734EA
:103204000034303438340034313438340034323417
:1032140038340034333438340034343438340034FB
:1032240035343834003430343934003431343934BA
:1032340000343234393400343334393400343434DF
:0A32440039340034353439340034D5
:020000040001F9
:0A000E00EC3FFF3F9F3FFF3FFF3F25
:00000001FF
